{
  "contractName": "Dex",
  "abi": [
    {
      "inputs": [],
      "stateMutability": "nonpayable",
      "type": "constructor"
    },
    {
      "inputs": [
        {
          "internalType": "string",
          "name": "",
          "type": "string"
        }
      ],
      "name": "tokens",
      "outputs": [
        {
          "internalType": "string",
          "name": "token",
          "type": "string"
        },
        {
          "internalType": "address",
          "name": "contractAddress",
          "type": "address"
        }
      ],
      "stateMutability": "view",
      "type": "function",
      "constant": true
    },
    {
      "inputs": [
        {
          "internalType": "string",
          "name": "token",
          "type": "string"
        },
        {
          "internalType": "address",
          "name": "contractAddress",
          "type": "address"
        }
      ],
      "name": "addToken",
      "outputs": [],
      "stateMutability": "nonpayable",
      "type": "function"
    },
    {
      "inputs": [
        {
          "internalType": "string",
          "name": "token",
          "type": "string"
        }
      ],
      "name": "getTokenContractAddress",
      "outputs": [
        {
          "internalType": "address",
          "name": "",
          "type": "address"
        }
      ],
      "stateMutability": "view",
      "type": "function",
      "constant": true
    },
    {
      "inputs": [
        {
          "internalType": "string",
          "name": "token",
          "type": "string"
        },
        {
          "internalType": "address",
          "name": "from",
          "type": "address"
        },
        {
          "internalType": "address",
          "name": "to",
          "type": "address"
        },
        {
          "internalType": "uint256",
          "name": "amount",
          "type": "uint256"
        }
      ],
      "name": "sendTokenWithSmartContractAddress",
      "outputs": [],
      "stateMutability": "nonpayable",
      "type": "function"
    }
  ],
  "bytecode": "0x608060405234801561001057600080fd5b50610b75806100206000396000f3fe608060405234801561001057600080fd5b5060043610610069576000357c01000000000000000000000000000000000000000000000000000000009004806304c2320b1461006e578063595080111461009f5780637f64aad3146100bb578063b0b22c2c146100eb575b600080fd5b610088600480360381019061008391906106ad565b610107565b6040516100969291906107bf565b60405180910390f35b6100b960048036038101906100b49190610851565b6101e9565b005b6100d560048036038101906100d091906106ad565b6103b2565b6040516100e291906108d4565b60405180910390f35b610105600480360381019061010091906108ef565b6103fc565b005b6000818051602081018201805184825260208301602085012081835280955050505050506000915090508060000180546101409061097a565b80601f016020809104026020016040519081016040528092919081815260200182805461016c9061097a565b80156101b95780601f1061018e576101008083540402835291602001916101b9565b820191906000526020600020905b81548152906001019060200180831161019c57829003601f168201915b5050505050908060010160009054906101000a900473ffffffffffffffffffffffffffffffffffffffff16905082565b600080856040516101fa91906109e8565b908152602001604051809103902060010160009054906101000a900473ffffffffffffffffffffffffffffffffffffffff169050600115158173ffffffffffffffffffffffffffffffffffffffff1663095ea7b386856040518363ffffffff167c0100000000000000000000000000000000000000000000000000000000028152600401610289929190610a0e565b6020604051808303816000875af11580156102a8573d6000803e3d6000fd5b505050506040513d601f19601f820116820180604052508101906102cc9190610a6f565b15151461030e576040517f08c379a000000000000000000000000000000000000000000000000000000000815260040161030590610ae8565b60405180910390fd5b8073ffffffffffffffffffffffffffffffffffffffff166323b872dd8585856040518463ffffffff167c010000000000000000000000000000000000000000000000000000000002815260040161036793929190610b08565b6020604051808303816000875af1158015610386573d6000803e3d6000fd5b505050506040513d601f19601f820116820180604052508101906103aa9190610a6f565b505050505050565b600080826040516103c391906109e8565b908152602001604051809103902060010160009054906101000a900473ffffffffffffffffffffffffffffffffffffffff169050919050565b60405180604001604052808381526020018273ffffffffffffffffffffffffffffffffffffffff1681525060008360405161043791906109e8565b908152602001604051809103902060008201518160000190805190602001906104619291906104b0565b5060208201518160010160006101000a81548173ffffffffffffffffffffffffffffffffffffffff021916908373ffffffffffffffffffffffffffffffffffffffff1602179055509050505050565b8280546104bc9061097a565b90600052602060002090601f0160209004810192826104de5760008555610525565b82601f106104f757805160ff1916838001178555610525565b82800160010185558215610525579182015b82811115610524578251825591602001919060010190610509565b5b5090506105329190610536565b5090565b5b8082111561054f576000816000905550600101610537565b5090565b6000604051905090565b600080fd5b600080fd5b600080fd5b600080fd5b6000601f19601f8301169050919050565b7f4e487b7100000000000000000000000000000000000000000000000000000000600052604160045260246000fd5b6105ba82610571565b810181811067ffffffffffffffff821117156105d9576105d8610582565b5b80604052505050565b60006105ec610553565b90506105f882826105b1565b919050565b600067ffffffffffffffff82111561061857610617610582565b5b61062182610571565b9050602081019050919050565b82818337600083830152505050565b600061065061064b846105fd565b6105e2565b90508281526020810184848401111561066c5761066b61056c565b5b61067784828561062e565b509392505050565b600082601f83011261069457610693610567565b5b81356106a484826020860161063d565b91505092915050565b6000602082840312156106c3576106c261055d565b5b600082013567ffffffffffffffff8111156106e1576106e0610562565b5b6106ed8482850161067f565b91505092915050565b600081519050919050565b600082825260208201905092915050565b60005b83811015610730578082015181840152602081019050610715565b8381111561073f576000848401525b50505050565b6000610750826106f6565b61075a8185610701565b935061076a818560208601610712565b61077381610571565b840191505092915050565b600073ffffffffffffffffffffffffffffffffffffffff82169050919050565b60006107a98261077e565b9050919050565b6107b98161079e565b82525050565b600060408201905081810360008301526107d98185610745565b90506107e860208301846107b0565b9392505050565b6107f88161079e565b811461080357600080fd5b50565b600081359050610815816107ef565b92915050565b6000819050919050565b61082e8161081b565b811461083957600080fd5b50565b60008135905061084b81610825565b92915050565b6000806000806080858703121561086b5761086a61055d565b5b600085013567ffffffffffffffff81111561088957610888610562565b5b6108958782880161067f565b94505060206108a687828801610806565b93505060406108b787828801610806565b92505060606108c88782880161083c565b91505092959194509250565b60006020820190506108e960008301846107b0565b92915050565b600080604083850312156109065761090561055d565b5b600083013567ffffffffffffffff81111561092457610923610562565b5b6109308582860161067f565b925050602061094185828601610806565b9150509250929050565b7f4e487b7100000000000000000000000000000000000000000000000000000000600052602260045260246000fd5b6000600282049050600182168061099257607f821691505b602082108114156109a6576109a561094b565b5b50919050565b600081905092915050565b60006109c2826106f6565b6109cc81856109ac565b93506109dc818560208601610712565b80840191505092915050565b60006109f482846109b7565b915081905092915050565b610a088161081b565b82525050565b6000604082019050610a2360008301856107b0565b610a3060208301846109ff565b9392505050565b60008115159050919050565b610a4c81610a37565b8114610a5757600080fd5b50565b600081519050610a6981610a43565b92915050565b600060208284031215610a8557610a8461055d565b5b6000610a9384828501610a5a565b91505092915050565b7f796f752068617665206e6f74206d6f656e790000000000000000000000000000600082015250565b6000610ad2601283610701565b9150610add82610a9c565b602082019050919050565b60006020820190508181036000830152610b0181610ac5565b9050919050565b6000606082019050610b1d60008301866107b0565b610b2a60208301856107b0565b610b3760408301846109ff565b94935050505056fea2646970667358221220f7a46d205f0562d2e0351d1107e86a1edba6e5e3bc29e6ea6b386fdd2001622f64736f6c634300080a0033",
  "immutableReferences": {},
  "source": "// SPDX-License-Identifier: MIT\npragma solidity >=0.4.22 <0.9.0;\nimport \"./IERC-20.sol\";\n\ncontract Dex {\n    struct Token {\n        string token;\n        address contractAddress;\n    }\n\n    mapping(string => Token) public tokens;\n\n    constructor() {}\n\n    function addToken(string memory token, address contractAddress) external {\n        tokens[token] = Token(token, contractAddress);\n    }\n\n    function getTokenContractAddress(string memory token)\n        external\n        view\n        returns (address)\n    {\n        return tokens[token].contractAddress;\n    }\n\n    function sendTokenWithSmartContractAddress(\n        string memory token,\n        address from,\n        address to,\n        uint256 amount\n    ) external {\n        IERC20 _token = IERC20(tokens[token].contractAddress);\n\n        require(_token.approve(from, amount) == true, \"you have not moeny\");\n        _token.transferFrom(from, to, amount);\n    }\n}\n",
  "sourcePath": "/home/kianoush/Projects/CPay/Coin/contracts/Dex.sol",
  "compiler": {
    "name": "solc",
    "version": "0.8.10+commit.fc410830.Emscripten.clang"
  },
  "schemaVersion": "3.4.4",
  "updatedAt": "2022-01-09T09:06:44.343Z",
  "networkType": "ethereum",
  "devdoc": {
    "kind": "dev",
    "methods": {},
    "version": 1
  },
  "userdoc": {
    "kind": "user",
    "methods": {},
    "version": 1
  }
}